{
  "contractName": "Lottery",
  "abi": [
    {
      "inputs": [],
      "stateMutability": "nonpayable",
      "type": "constructor"
    },
    {
      "anonymous": false,
      "inputs": [
        {
          "indexed": false,
          "internalType": "uint256",
          "name": "index",
          "type": "uint256"
        },
        {
          "indexed": false,
          "internalType": "address",
          "name": "bettor",
          "type": "address"
        },
        {
          "indexed": false,
          "internalType": "uint256",
          "name": "amount",
          "type": "uint256"
        },
        {
          "indexed": false,
          "internalType": "bytes1",
          "name": "challenges",
          "type": "bytes1"
        },
        {
          "indexed": false,
          "internalType": "uint256",
          "name": "answerBlockNumber",
          "type": "uint256"
        }
      ],
      "name": "BET",
      "type": "event"
    },
    {
      "anonymous": false,
      "inputs": [
        {
          "indexed": false,
          "internalType": "uint256",
          "name": "index",
          "type": "uint256"
        },
        {
          "indexed": false,
          "internalType": "address",
          "name": "bettor",
          "type": "address"
        },
        {
          "indexed": false,
          "internalType": "uint256",
          "name": "amount",
          "type": "uint256"
        },
        {
          "indexed": false,
          "internalType": "bytes1",
          "name": "challenges",
          "type": "bytes1"
        },
        {
          "indexed": false,
          "internalType": "bytes1",
          "name": "answer",
          "type": "bytes1"
        },
        {
          "indexed": false,
          "internalType": "uint256",
          "name": "answerBlockNumber",
          "type": "uint256"
        }
      ],
      "name": "DRAW",
      "type": "event"
    },
    {
      "anonymous": false,
      "inputs": [
        {
          "indexed": false,
          "internalType": "uint256",
          "name": "index",
          "type": "uint256"
        },
        {
          "indexed": false,
          "internalType": "address",
          "name": "bettor",
          "type": "address"
        },
        {
          "indexed": false,
          "internalType": "uint256",
          "name": "amount",
          "type": "uint256"
        },
        {
          "indexed": false,
          "internalType": "bytes1",
          "name": "challenges",
          "type": "bytes1"
        },
        {
          "indexed": false,
          "internalType": "bytes1",
          "name": "answer",
          "type": "bytes1"
        },
        {
          "indexed": false,
          "internalType": "uint256",
          "name": "answerBlockNumber",
          "type": "uint256"
        }
      ],
      "name": "FAIL",
      "type": "event"
    },
    {
      "anonymous": false,
      "inputs": [
        {
          "indexed": false,
          "internalType": "uint256",
          "name": "index",
          "type": "uint256"
        },
        {
          "indexed": false,
          "internalType": "address",
          "name": "bettor",
          "type": "address"
        },
        {
          "indexed": false,
          "internalType": "uint256",
          "name": "amount",
          "type": "uint256"
        },
        {
          "indexed": false,
          "internalType": "bytes1",
          "name": "challenges",
          "type": "bytes1"
        },
        {
          "indexed": false,
          "internalType": "uint256",
          "name": "answerBlockNumber",
          "type": "uint256"
        }
      ],
      "name": "REFUND",
      "type": "event"
    },
    {
      "anonymous": false,
      "inputs": [
        {
          "indexed": false,
          "internalType": "uint256",
          "name": "index",
          "type": "uint256"
        },
        {
          "indexed": false,
          "internalType": "address",
          "name": "bettor",
          "type": "address"
        },
        {
          "indexed": false,
          "internalType": "uint256",
          "name": "amount",
          "type": "uint256"
        },
        {
          "indexed": false,
          "internalType": "bytes1",
          "name": "challenges",
          "type": "bytes1"
        },
        {
          "indexed": false,
          "internalType": "bytes1",
          "name": "answer",
          "type": "bytes1"
        },
        {
          "indexed": false,
          "internalType": "uint256",
          "name": "answerBlockNumber",
          "type": "uint256"
        }
      ],
      "name": "WIN",
      "type": "event"
    },
    {
      "inputs": [],
      "name": "owner",
      "outputs": [
        {
          "internalType": "address payable",
          "name": "",
          "type": "address"
        }
      ],
      "stateMutability": "view",
      "type": "function",
      "constant": true
    },
    {
      "inputs": [],
      "name": "getPot",
      "outputs": [
        {
          "internalType": "uint256",
          "name": "pot",
          "type": "uint256"
        }
      ],
      "stateMutability": "view",
      "type": "function",
      "constant": true
    },
    {
      "inputs": [
        {
          "internalType": "bytes32",
          "name": "answer",
          "type": "bytes32"
        }
      ],
      "name": "setAnswerForTest",
      "outputs": [
        {
          "internalType": "bool",
          "name": "result",
          "type": "bool"
        }
      ],
      "stateMutability": "nonpayable",
      "type": "function"
    },
    {
      "inputs": [
        {
          "internalType": "bytes1",
          "name": "challenges",
          "type": "bytes1"
        }
      ],
      "name": "betAndDistribute",
      "outputs": [
        {
          "internalType": "bool",
          "name": "result",
          "type": "bool"
        }
      ],
      "stateMutability": "payable",
      "type": "function",
      "payable": true
    },
    {
      "inputs": [
        {
          "internalType": "bytes1",
          "name": "challenges",
          "type": "bytes1"
        }
      ],
      "name": "bet",
      "outputs": [
        {
          "internalType": "bool",
          "name": "result",
          "type": "bool"
        }
      ],
      "stateMutability": "payable",
      "type": "function",
      "payable": true
    },
    {
      "inputs": [],
      "name": "distribute",
      "outputs": [],
      "stateMutability": "nonpayable",
      "type": "function"
    },
    {
      "inputs": [
        {
          "internalType": "bytes1",
          "name": "challenges",
          "type": "bytes1"
        },
        {
          "internalType": "bytes32",
          "name": "answer",
          "type": "bytes32"
        }
      ],
      "name": "isMatch",
      "outputs": [
        {
          "internalType": "enum Lottery.BettingResult",
          "name": "",
          "type": "uint8"
        }
      ],
      "stateMutability": "pure",
      "type": "function",
      "constant": true
    },
    {
      "inputs": [
        {
          "internalType": "uint256",
          "name": "index",
          "type": "uint256"
        }
      ],
      "name": "getBetInfo",
      "outputs": [
        {
          "internalType": "uint256",
          "name": "answerBlockNumber",
          "type": "uint256"
        },
        {
          "internalType": "address",
          "name": "bettor",
          "type": "address"
        },
        {
          "internalType": "bytes1",
          "name": "challenges",
          "type": "bytes1"
        }
      ],
      "stateMutability": "view",
      "type": "function",
      "constant": true
    },
    {
      "inputs": [
        {
          "internalType": "bytes1",
          "name": "challenges",
          "type": "bytes1"
        }
      ],
      "name": "pushBet",
      "outputs": [
        {
          "internalType": "bool",
          "name": "",
          "type": "bool"
        }
      ],
      "stateMutability": "nonpayable",
      "type": "function"
    },
    {
      "inputs": [
        {
          "internalType": "uint256",
          "name": "index",
          "type": "uint256"
        }
      ],
      "name": "popBet",
      "outputs": [
        {
          "internalType": "bool",
          "name": "",
          "type": "bool"
        }
      ],
      "stateMutability": "nonpayable",
      "type": "function"
    }
  ],
  "bytecode": "0x60806040526000600560006101000a81548160ff0219169083151502179055507fab5119e99b5dd50aeea88b5f4170dda9a547da4a95c211ae712114835c3a81d460001b60065534801561005257600080fd5b5033600360006101000a81548173ffffffffffffffffffffffffffffffffffffffff021916908373ffffffffffffffffffffffffffffffffffffffff160217905550611854806100a36000396000f3fe6080604052600436106100915760003560e01c806399a167d71161005957806399a167d7146101a5578063d04c9a8c146101e2578063e16ea8571461021f578063e4fc6b6d1461024f578063f4b46f5b1461026657610091565b80630328209614610096578063403c9fa8146100d35780637009fa36146100fe57806379141f801461013b5780638da5cb5b1461017a575b600080fd5b3480156100a257600080fd5b506100bd60048036038101906100b89190611088565b610296565b6040516100ca91906110d0565b60405180910390f35b3480156100df57600080fd5b506100e86103e9565b6040516100f59190611104565b60405180910390f35b34801561010a57600080fd5b5061012560048036038101906101209190611155565b6103f3565b60405161013291906110d0565b60405180910390f35b34801561014757600080fd5b50610162600480360381019061015d91906111ae565b610495565b6040516101719392919061122b565b60405180910390f35b34801561018657600080fd5b5061018f610593565b60405161019c9190611283565b60405180910390f35b3480156101b157600080fd5b506101cc60048036038101906101c7919061129e565b6105b9565b6040516101d99190611355565b60405180910390f35b3480156101ee57600080fd5b50610209600480360381019061020491906111ae565b6108a2565b60405161021691906110d0565b60405180910390f35b61023960048036038101906102349190611088565b610906565b60405161024691906110d0565b60405180910390f35b34801561025b57600080fd5b50610264610923565b005b610280600480360381019061027b9190611088565b610d81565b60405161028d91906110d0565b60405180910390f35b60006102a0610fd2565b33816020019073ffffffffffffffffffffffffffffffffffffffff16908173ffffffffffffffffffffffffffffffffffffffff16815250506002436102e5919061139f565b8160000181815250508281604001907effffffffffffffffffffffffffffffffffffffffffffffffffffffffffffff191690817effffffffffffffffffffffffffffffffffffffffffffffffffffffffffffff1916815250508060026000805481526020019081526020016000206000820151816000015560208201518160010160006101000a81548173ffffffffffffffffffffffffffffffffffffffff021916908373ffffffffffffffffffffffffffffffffffffffff16021790555060408201518160010160146101000a81548160ff021916908360f81c02179055509050506000808154809291906103da906113f5565b91905055506001915050919050565b6000600454905090565b6000600360009054906101000a900473ffffffffffffffffffffffffffffffffffffffff1673ffffffffffffffffffffffffffffffffffffffff163373ffffffffffffffffffffffffffffffffffffffff1614610485576040517f08c379a000000000000000000000000000000000000000000000000000000000815260040161047c906114c1565b60405180910390fd5b8160068190555060019050919050565b60008060008060026000868152602001908152602001600020604051806060016040529081600082015481526020016001820160009054906101000a900473ffffffffffffffffffffffffffffffffffffffff1673ffffffffffffffffffffffffffffffffffffffff1673ffffffffffffffffffffffffffffffffffffffff1681526020016001820160149054906101000a900460f81b7effffffffffffffffffffffffffffffffffffffffffffffffffffffffffffff19167effffffffffffffffffffffffffffffffffffffffffffffffffffffffffffff1916815250509050806000015193508060200151925080604001519150509193909250565b600360009054906101000a900473ffffffffffffffffffffffffffffffffffffffff1681565b60008083905060008490506000846000602081106105da576105d96114e1565b5b1a60f81b90506000856001602081106105f6576105f56114e1565b5b1a60f81b90506004847effffffffffffffffffffffffffffffffffffffffffffffffffffffffffffff1916901c93506004847effffffffffffffffffffffffffffffffffffffffffffffffffffffffffffff1916901b93506004827effffffffffffffffffffffffffffffffffffffffffffffffffffffffffffff1916901c91506004827effffffffffffffffffffffffffffffffffffffffffffffffffffffffffffff1916901b91506004837effffffffffffffffffffffffffffffffffffffffffffffffffffffffffffff1916901b92506004837effffffffffffffffffffffffffffffffffffffffffffffffffffffffffffff1916901c92506004817effffffffffffffffffffffffffffffffffffffffffffffffffffffffffffff1916901b90506004817effffffffffffffffffffffffffffffffffffffffffffffffffffffffffffff1916901c9050837effffffffffffffffffffffffffffffffffffffffffffffffffffffffffffff1916827effffffffffffffffffffffffffffffffffffffffffffffffffffffffffffff19161480156107da5750827effffffffffffffffffffffffffffffffffffffffffffffffffffffffffffff1916817effffffffffffffffffffffffffffffffffffffffffffffffffffffffffffff1916145b156107ec57600194505050505061089c565b837effffffffffffffffffffffffffffffffffffffffffffffffffffffffffffff1916827effffffffffffffffffffffffffffffffffffffffffffffffffffffffffffff191614806108815750827effffffffffffffffffffffffffffffffffffffffffffffffffffffffffffff1916817effffffffffffffffffffffffffffffffffffffffffffffffffffffffffffff1916145b1561089357600294505050505061089c565b60009450505050505b92915050565b6000600260008381526020019081526020016000206000808201600090556001820160006101000a81549073ffffffffffffffffffffffffffffffffffffffff02191690556001820160146101000a81549060ff0219169055505060019050919050565b600061091182610d81565b5061091a610923565b60019050919050565b600061092d610fd2565b600080600060015494505b600054851015610d735760026000868152602001908152602001600020604051806060016040529081600082015481526020016001820160009054906101000a900473ffffffffffffffffffffffffffffffffffffffff1673ffffffffffffffffffffffffffffffffffffffff1673ffffffffffffffffffffffffffffffffffffffff1681526020016001820160149054906101000a900460f81b7effffffffffffffffffffffffffffffffffffffffffffffffffffffffffffff19167effffffffffffffffffffffffffffffffffffffffffffffffffffffffffffff1916815250509350610a2a8460000151610e76565b925060006002811115610a4057610a3f6112de565b5b836002811115610a5357610a526112de565b5b1415610c95576000610a688560000151610ed8565b9050610a788560400151826105b9565b925060016002811115610a8e57610a8d6112de565b5b836002811115610aa157610aa06112de565b5b1415610b3857610ac985602001516611c37937e08000600454610ac4919061139f565b610f00565b915060006004819055507f8219079e2d6c1192fb0ff7f78e6faaf5528ad6687e69749205d87bd4b156912b86866020015184886040015185600060208110610b1457610b136114e1565b5b1a60f81b8a60000151604051610b2f9695949392919061156f565b60405180910390a15b60006002811115610b4c57610b4b6112de565b5b836002811115610b5f57610b5e6112de565b5b1415610beb576611c37937e0800060046000828254610b7e919061139f565b925050819055507f3b19d607433249d2ebc766ae82ca3848e9c064f1febb5147bc6e5b21d0adebc58686602001516000886040015185600060208110610bc757610bc66114e1565b5b1a60f81b8a60000151604051610be29695949392919061160b565b60405180910390a15b600280811115610bfe57610bfd6112de565b5b836002811115610c1157610c106112de565b5b1415610c9357610c2c85602001516611c37937e08000610f00565b91507f3b19d607433249d2ebc766ae82ca3848e9c064f1febb5147bc6e5b21d0adebc586866020015184886040015185600060208110610c6f57610c6e6114e1565b5b1a60f81b8a60000151604051610c8a9695949392919061156f565b60405180910390a15b505b60016002811115610ca957610ca86112de565b5b836002811115610cbc57610cbb6112de565b5b1415610cc757610d73565b600280811115610cda57610cd96112de565b5b836002811115610ced57610cec6112de565b5b1415610d5657610d0884602001516611c37937e08000610f00565b90507f59c0185881271a0f53d43e6ab9310091408f9e0ff9ae2512613de800f26b8de48585602001518387604001518860000151604051610d4d95949392919061166c565b60405180910390a15b610d5f856108a2565b508480610d6b906113f5565b955050610938565b846001819055505050505050565b60006611c37937e080003414610dcc576040517f08c379a0000000000000000000000000000000000000000000000000000000008152600401610dc39061170b565b60405180910390fd5b610dd582610296565b610e14576040517f08c379a0000000000000000000000000000000000000000000000000000000008152600401610e0b90611777565b60405180910390fd5b7f100791de9f40bf2d56ffa6dc5597d2fd0b2703ea70bc7548cd74c04f5d215ab76001600054610e449190611797565b333485600243610e54919061139f565b604051610e659594939291906117cb565b60405180910390a160019050919050565b60008143118015610e93575081610100610e90919061139f565b43105b15610ea15760009050610ed3565b814311610eb15760019050610ed3565b61010082610ebf919061139f565b4310610ece5760029050610ed3565b600290505b919050565b6000600560009054906101000a900460ff16610ef657600654610ef9565b81405b9050919050565b6000806000905060008184610f159190611797565b90508473ffffffffffffffffffffffffffffffffffffffff166108fc829081150290604051600060405180830381858888f19350505050158015610f5d573d6000803e3d6000fd5b50600360009054906101000a900473ffffffffffffffffffffffffffffffffffffffff1673ffffffffffffffffffffffffffffffffffffffff166108fc839081150290604051600060405180830381858888f19350505050158015610fc6573d6000803e3d6000fd5b50809250505092915050565b604051806060016040528060008152602001600073ffffffffffffffffffffffffffffffffffffffff16815260200160007effffffffffffffffffffffffffffffffffffffffffffffffffffffffffffff191681525090565b600080fd5b60007fff0000000000000000000000000000000000000000000000000000000000000082169050919050565b61106581611030565b811461107057600080fd5b50565b6000813590506110828161105c565b92915050565b60006020828403121561109e5761109d61102b565b5b60006110ac84828501611073565b91505092915050565b60008115159050919050565b6110ca816110b5565b82525050565b60006020820190506110e560008301846110c1565b92915050565b6000819050919050565b6110fe816110eb565b82525050565b600060208201905061111960008301846110f5565b92915050565b6000819050919050565b6111328161111f565b811461113d57600080fd5b50565b60008135905061114f81611129565b92915050565b60006020828403121561116b5761116a61102b565b5b600061117984828501611140565b91505092915050565b61118b816110eb565b811461119657600080fd5b50565b6000813590506111a881611182565b92915050565b6000602082840312156111c4576111c361102b565b5b60006111d284828501611199565b91505092915050565b600073ffffffffffffffffffffffffffffffffffffffff82169050919050565b6000611206826111db565b9050919050565b611216816111fb565b82525050565b61122581611030565b82525050565b600060608201905061124060008301866110f5565b61124d602083018561120d565b61125a604083018461121c565b949350505050565b600061126d826111db565b9050919050565b61127d81611262565b82525050565b60006020820190506112986000830184611274565b92915050565b600080604083850312156112b5576112b461102b565b5b60006112c385828601611073565b92505060206112d485828601611140565b9150509250929050565b7f4e487b7100000000000000000000000000000000000000000000000000000000600052602160045260246000fd5b6003811061131e5761131d6112de565b5b50565b600081905061132f8261130d565b919050565b600061133f82611321565b9050919050565b61134f81611334565b82525050565b600060208201905061136a6000830184611346565b92915050565b7f4e487b7100000000000000000000000000000000000000000000000000000000600052601160045260246000fd5b60006113aa826110eb565b91506113b5836110eb565b9250827fffffffffffffffffffffffffffffffffffffffffffffffffffffffffffffffff038211156113ea576113e9611370565b5b828201905092915050565b6000611400826110eb565b91507fffffffffffffffffffffffffffffffffffffffffffffffffffffffffffffffff82141561143357611432611370565b5b600182019050919050565b600082825260208201905092915050565b7f4f6e6c79206f776e65722063616e207365742074686520616e7377657220666f60008201527f722074657374206d6f6465000000000000000000000000000000000000000000602082015250565b60006114ab602b8361143e565b91506114b68261144f565b604082019050919050565b600060208201905081810360008301526114da8161149e565b9050919050565b7f4e487b7100000000000000000000000000000000000000000000000000000000600052603260045260246000fd5b6000819050919050565b600061153561153061152b846111db565b611510565b6111db565b9050919050565b60006115478261151a565b9050919050565b60006115598261153c565b9050919050565b6115698161154e565b82525050565b600060c08201905061158460008301896110f5565b6115916020830188611560565b61159e60408301876110f5565b6115ab606083018661121c565b6115b8608083018561121c565b6115c560a08301846110f5565b979650505050505050565b6000819050919050565b60006115f56115f06115eb846115d0565b611510565b6110eb565b9050919050565b611605816115da565b82525050565b600060c08201905061162060008301896110f5565b61162d6020830188611560565b61163a60408301876115fc565b611647606083018661121c565b611654608083018561121c565b61166160a08301846110f5565b979650505050505050565b600060a08201905061168160008301886110f5565b61168e6020830187611560565b61169b60408301866110f5565b6116a8606083018561121c565b6116b560808301846110f5565b9695505050505050565b7f4e6f7420656e6f756768206d6f6e657920455448000000000000000000000000600082015250565b60006116f560148361143e565b9150611700826116bf565b602082019050919050565b60006020820190508181036000830152611724816116e8565b9050919050565b7f4661696c20746f206164642061206e65772042657420696e666f000000000000600082015250565b6000611761601a8361143e565b915061176c8261172b565b602082019050919050565b6000602082019050818103600083015261179081611754565b9050919050565b60006117a2826110eb565b91506117ad836110eb565b9250828210156117c0576117bf611370565b5b828203905092915050565b600060a0820190506117e060008301886110f5565b6117ed602083018761120d565b6117fa60408301866110f5565b611807606083018561121c565b61181460808301846110f5565b969550505050505056fea2646970667358221220a9b20603dbaa5260eb20761ac77453f151f3b0d2574f207cc4d0a96713bfb31e64736f6c634300080b0033",
  "immutableReferences": {},
  "source": "// SPDX-License-Identifier: MIT\r\npragma solidity >=0.4.22 <0.9.0;\r\n\r\ncontract Lottery {\r\n    struct BetInfo {\r\n        uint256 answerBlockNumber;\r\n        address payable bettor;\r\n        bytes1 challenges;\r\n    }\r\n\r\n    uint256 private _tail;\r\n    uint256 private _head;\r\n    mapping (uint256 => BetInfo) private _bets;\r\n\r\n    address payable public owner;\r\n    uint256 private _pot;\r\n    bool private mode = false;\r\n\r\n    enum BlockStatus {Checkable, NotRevealed, BlockLimitPassed}\r\n    enum BettingResult {Fail, Win, Draw}\r\n\r\n    uint256 constant internal BLOCK_LIMIT = 256;\r\n    uint256 constant internal BET_AMOUNT = 5 * 10 ** 15;\r\n    uint256 constant internal BET_BLOCK_INTERVAL = 2;\r\n\r\n    bytes32 answerForTest = 0xab5119e99b5dd50aeea88b5f4170dda9a547da4a95c211ae712114835c3a81d4;\r\n\r\n    event BET(uint256 index, address bettor, uint256 amount, bytes1 challenges, uint256 answerBlockNumber);\r\n    event WIN(uint256 index, address bettor, uint256 amount, bytes1 challenges, bytes1 answer, uint256 answerBlockNumber);\r\n    event FAIL(uint256 index, address bettor, uint256 amount, bytes1 challenges, bytes1 answer, uint256 answerBlockNumber);\r\n    event DRAW(uint256 index, address bettor, uint256 amount, bytes1 challenges, bytes1 answer, uint256 answerBlockNumber);\r\n    event REFUND(uint256 index, address bettor, uint256 amount, bytes1 challenges, uint256 answerBlockNumber);\r\n    constructor() public {\r\n        owner = payable(msg.sender);\r\n    }\r\n\r\n    function getPot() public view returns (uint256 pot) {\r\n        return _pot;\r\n    }\r\n\r\n    function getAnswerBlockHash(uint256 answerBlockNumber) internal view returns (bytes32 answer) {\r\n        return mode ? blockhash(answerBlockNumber) : answerForTest;\r\n    }\r\n\r\n    function setAnswerForTest(bytes32 answer) public returns (bool result) {\r\n        require(msg.sender == owner, \"Only owner can set the answer for test mode\");\r\n        answerForTest = answer;\r\n        return true;\r\n    }\r\n\r\n    function transferAfterPayingFee(address payable addr, uint256 amount) internal returns (uint256) {\r\n        uint256 fee = 0;\r\n        uint256 amountWithoutFee = amount - fee;\r\n\r\n        addr.transfer(amountWithoutFee);\r\n        owner.transfer(fee);\r\n\r\n        return amountWithoutFee;\r\n\r\n\r\n    }\r\n\r\n    function betAndDistribute(bytes1 challenges) public payable returns (bool result) {\r\n        bet(challenges);\r\n\r\n        distribute();\r\n        \r\n        return true;\r\n    }\r\n\r\n\r\n    //bet function\r\n    function bet(bytes1 challenges) public payable returns (bool result) {\r\n        //check the eth\r\n        require(msg.value == BET_AMOUNT, \"Not enough money ETH\");\r\n        require(pushBet(challenges), \"Fail to add a new Bet info\");\r\n        emit BET(_tail-1, msg.sender, msg.value, challenges, block.number+BET_BLOCK_INTERVAL);\r\n        return true;\r\n    }\r\n\r\n    function distribute() public {\r\n        uint256 cur;\r\n        BetInfo memory b;\r\n        BlockStatus currentBlockStatus;\r\n        BettingResult currentBettingResult;\r\n        uint256 transferAmount;\r\n        for(cur=_head; cur<_tail; cur++) {\r\n            b = _bets[cur];\r\n            currentBlockStatus = getBlockStatus(b.answerBlockNumber);\r\n            //checkable\r\n            if(currentBlockStatus == BlockStatus.Checkable) {\r\n                bytes32 answerBlockHash = getAnswerBlockHash(b.answerBlockNumber);\r\n                currentBettingResult = isMatch(b.challenges, answerBlockHash);\r\n                if(currentBettingResult == BettingResult.Win) {\r\n                    transferAmount = transferAfterPayingFee(b.bettor, _pot + BET_AMOUNT);\r\n                    _pot = 0;\r\n                    emit WIN(cur, b.bettor, transferAmount, b.challenges, answerBlockHash[0], b.answerBlockNumber);\r\n                }\r\n\r\n                if(currentBettingResult == BettingResult.Fail) {\r\n                    _pot += BET_AMOUNT;\r\n                    emit FAIL(cur, b.bettor, 0, b.challenges, answerBlockHash[0], b.answerBlockNumber);\r\n                }\r\n\r\n                if(currentBettingResult == BettingResult.Draw) {\r\n                    transferAmount = transferAfterPayingFee(b.bettor, BET_AMOUNT);\r\n                    emit FAIL(cur, b.bettor, transferAmount, b.challenges, answerBlockHash[0], b.answerBlockNumber);\r\n                }\r\n            }\r\n\r\n            //not revealed\r\n            if(currentBlockStatus == BlockStatus.NotRevealed) {\r\n                break;\r\n            }\r\n\r\n            // block limit passed\r\n            if(currentBlockStatus == BlockStatus.BlockLimitPassed) {\r\n                //refund\r\n                transferAmount = transferAfterPayingFee(b.bettor, BET_AMOUNT);\r\n                emit REFUND(cur, b.bettor, transferAmount, b.challenges, b.answerBlockNumber);\r\n\r\n            }\r\n            popBet(cur);\r\n        }\r\n        _head = cur;\r\n    }\r\n\r\n    function isMatch(bytes1 challenges, bytes32 answer) public pure returns(BettingResult){\r\n        bytes1 c1 = challenges;\r\n        bytes1 c2 = challenges;\r\n        bytes1 a1 = answer[0];\r\n        bytes1 a2 = answer[1];\r\n\r\n        c1 = c1 >> 4;\r\n        c1 = c1 << 4;\r\n\r\n        a1 = a1 >> 4;\r\n        a1 = a1 << 4;\r\n\r\n        c2 = c2 << 4;\r\n        c2 = c2 >> 4;\r\n\r\n        a2 = a2 << 4;\r\n        a2 = a2 >> 4;\r\n\r\n        if (a1 == c1 && a2 == c2) {\r\n            return BettingResult.Win;\r\n        }\r\n\r\n        if(a1 == c1 || a2 == c2) {\r\n            return BettingResult.Draw;\r\n        }\r\n\r\n        return BettingResult.Fail;\r\n        \r\n    }\r\n\r\n    function getBlockStatus(uint256 answerBlockNumber) internal view returns (BlockStatus) {\r\n        if(block.number > answerBlockNumber && block.number < BLOCK_LIMIT + answerBlockNumber) {\r\n            return BlockStatus.Checkable;\r\n        }\r\n        if(block.number <= answerBlockNumber) {\r\n            return BlockStatus.NotRevealed;\r\n        }\r\n        if(block.number >= answerBlockNumber + BLOCK_LIMIT) {\r\n            return BlockStatus.BlockLimitPassed;\r\n        }\r\n        return BlockStatus.BlockLimitPassed;\r\n    }\r\n\r\n    function getBetInfo(uint256 index) public view returns (uint256 answerBlockNumber, address bettor, bytes1 challenges) {\r\n        BetInfo memory b = _bets[index];\r\n        answerBlockNumber = b.answerBlockNumber;\r\n        bettor = b.bettor;\r\n        challenges = b.challenges;\r\n    }\r\n\r\n    function pushBet(bytes1 challenges) public returns (bool) {\r\n        BetInfo memory b;\r\n        b.bettor = payable(msg.sender);\r\n        b.answerBlockNumber = block.number + BET_BLOCK_INTERVAL;\r\n        b.challenges = challenges;\r\n        _bets[_tail] = b;\r\n        _tail++;\r\n\r\n        return true;\r\n    }\r\n\r\n    function popBet(uint256 index) public returns (bool) {\r\n        delete _bets[index];\r\n        return true;\r\n    }\r\n}\r\n",
  "sourcePath": "D:\\Learning\\blockchain\\lottery\\contracts\\Lottery.sol",
  "compiler": {
    "name": "solc",
    "version": "0.8.11+commit.d7f03943.Emscripten.clang"
  },
  "schemaVersion": "3.4.4",
  "updatedAt": "2022-03-20T14:05:48.533Z",
  "networkType": "ethereum",
  "devdoc": {
    "kind": "dev",
    "methods": {},
    "version": 1
  },
  "userdoc": {
    "kind": "user",
    "methods": {},
    "version": 1
  }
}