{
  "contractName": "Lottery",
  "abi": [
    {
      "inputs": [],
      "stateMutability": "nonpayable",
      "type": "constructor"
    },
    {
      "inputs": [],
      "name": "owner",
      "outputs": [
        {
          "internalType": "address",
          "name": "",
          "type": "address"
        }
      ],
      "stateMutability": "view",
      "type": "function"
    },
    {
      "inputs": [],
      "name": "getPot",
      "outputs": [
        {
          "internalType": "uint256",
          "name": "pot",
          "type": "uint256"
        }
      ],
      "stateMutability": "view",
      "type": "function"
    },
    {
      "inputs": [
        {
          "internalType": "bytes1",
          "name": "challenges",
          "type": "bytes1"
        }
      ],
      "name": "bet",
      "outputs": [
        {
          "internalType": "bool",
          "name": "result",
          "type": "bool"
        }
      ],
      "stateMutability": "nonpayable",
      "type": "function"
    },
    {
      "inputs": [
        {
          "internalType": "uint256",
          "name": "index",
          "type": "uint256"
        }
      ],
      "name": "getBetInfo",
      "outputs": [
        {
          "internalType": "uint256",
          "name": "answerBlockNumber",
          "type": "uint256"
        },
        {
          "internalType": "address",
          "name": "bettor",
          "type": "address"
        },
        {
          "internalType": "bytes1",
          "name": "challenges",
          "type": "bytes1"
        }
      ],
      "stateMutability": "view",
      "type": "function"
    },
    {
      "inputs": [
        {
          "internalType": "bytes1",
          "name": "challenges",
          "type": "bytes1"
        }
      ],
      "name": "pushBet",
      "outputs": [
        {
          "internalType": "bool",
          "name": "",
          "type": "bool"
        }
      ],
      "stateMutability": "nonpayable",
      "type": "function"
    },
    {
      "inputs": [
        {
          "internalType": "uint256",
          "name": "index",
          "type": "uint256"
        }
      ],
      "name": "popBet",
      "outputs": [
        {
          "internalType": "bool",
          "name": "",
          "type": "bool"
        }
      ],
      "stateMutability": "nonpayable",
      "type": "function"
    }
  ],
  "bytecode": "0x608060405234801561001057600080fd5b5033600360006101000a81548173ffffffffffffffffffffffffffffffffffffffff021916908373ffffffffffffffffffffffffffffffffffffffff1602179055506107a1806100616000396000f3fe608060405234801561001057600080fd5b50600436106100625760003560e01c80630328209614610067578063403c9fa81461009757806379141f80146100b55780638da5cb5b146100e7578063d04c9a8c14610105578063f4b46f5b14610135575b600080fd5b610081600480360381019061007c919061050b565b610165565b60405161008e9190610553565b60405180910390f35b61009f6102b8565b6040516100ac9190610587565b60405180910390f35b6100cf60048036038101906100ca91906105ce565b6102c2565b6040516100de9392919061064b565b60405180910390f35b6100ef6103c0565b6040516100fc9190610682565b60405180910390f35b61011f600480360381019061011a91906105ce565b6103e6565b60405161012c9190610553565b60405180910390f35b61014f600480360381019061014a919061050b565b61044a565b60405161015c9190610553565b60405180910390f35b600061016f610455565b33816020019073ffffffffffffffffffffffffffffffffffffffff16908173ffffffffffffffffffffffffffffffffffffffff16815250506002436101b491906106cc565b8160000181815250508281604001907effffffffffffffffffffffffffffffffffffffffffffffffffffffffffffff191690817effffffffffffffffffffffffffffffffffffffffffffffffffffffffffffff1916815250508060026000805481526020019081526020016000206000820151816000015560208201518160010160006101000a81548173ffffffffffffffffffffffffffffffffffffffff021916908373ffffffffffffffffffffffffffffffffffffffff16021790555060408201518160010160146101000a81548160ff021916908360f81c02179055509050506000808154809291906102a990610722565b91905055506001915050919050565b6000600454905090565b60008060008060026000868152602001908152602001600020604051806060016040529081600082015481526020016001820160009054906101000a900473ffffffffffffffffffffffffffffffffffffffff1673ffffffffffffffffffffffffffffffffffffffff1673ffffffffffffffffffffffffffffffffffffffff1681526020016001820160149054906101000a900460f81b7effffffffffffffffffffffffffffffffffffffffffffffffffffffffffffff19167effffffffffffffffffffffffffffffffffffffffffffffffffffffffffffff1916815250509050806000015193508060200151925080604001519150509193909250565b600360009054906101000a900473ffffffffffffffffffffffffffffffffffffffff1681565b6000600260008381526020019081526020016000206000808201600090556001820160006101000a81549073ffffffffffffffffffffffffffffffffffffffff02191690556001820160146101000a81549060ff0219169055505060019050919050565b600060019050919050565b604051806060016040528060008152602001600073ffffffffffffffffffffffffffffffffffffffff16815260200160007effffffffffffffffffffffffffffffffffffffffffffffffffffffffffffff191681525090565b600080fd5b60007fff0000000000000000000000000000000000000000000000000000000000000082169050919050565b6104e8816104b3565b81146104f357600080fd5b50565b600081359050610505816104df565b92915050565b600060208284031215610521576105206104ae565b5b600061052f848285016104f6565b91505092915050565b60008115159050919050565b61054d81610538565b82525050565b60006020820190506105686000830184610544565b92915050565b6000819050919050565b6105818161056e565b82525050565b600060208201905061059c6000830184610578565b92915050565b6105ab8161056e565b81146105b657600080fd5b50565b6000813590506105c8816105a2565b92915050565b6000602082840312156105e4576105e36104ae565b5b60006105f2848285016105b9565b91505092915050565b600073ffffffffffffffffffffffffffffffffffffffff82169050919050565b6000610626826105fb565b9050919050565b6106368161061b565b82525050565b610645816104b3565b82525050565b60006060820190506106606000830186610578565b61066d602083018561062d565b61067a604083018461063c565b949350505050565b6000602082019050610697600083018461062d565b92915050565b7f4e487b7100000000000000000000000000000000000000000000000000000000600052601160045260246000fd5b60006106d78261056e565b91506106e28361056e565b9250827fffffffffffffffffffffffffffffffffffffffffffffffffffffffffffffffff038211156107175761071661069d565b5b828201905092915050565b600061072d8261056e565b91507fffffffffffffffffffffffffffffffffffffffffffffffffffffffffffffffff8214156107605761075f61069d565b5b60018201905091905056fea2646970667358221220b450af1c9832de19086ef00f02603143d5e07500f983d7b99728ff95f5eeea4264736f6c634300080b0033",
  "immutableReferences": {},
  "source": "// SPDX-License-Identifier: MIT\r\npragma solidity >=0.4.22 <0.9.0;\r\n\r\ncontract Lottery {\r\n    struct BetInfo {\r\n        uint256 answerBlockNumber;\r\n        address payable bettor;\r\n        bytes1 challenges;\r\n    }\r\n\r\n    uint256 private _tail;\r\n    uint256 private _head;\r\n    mapping (uint256 => BetInfo) private _bets;\r\n\r\n    address public owner;\r\n    uint256 private _pot;\r\n    \r\n    uint256 constant internal BLOCK_LIMIT = 256;\r\n    uint256 constant internal BET_AMOUNT = 5 * 10 ** 15;\r\n    uint256 constant internal BET_BLOCK_INTERVAL = 2;\r\n\r\n\r\n    constructor() public {\r\n        owner = msg.sender;\r\n    }\r\n\r\n    function getPot() public view returns (uint256 pot) {\r\n        return _pot;\r\n    }\r\n\r\n    //bet function\r\n    function bet(bytes1 challenges) public returns (bool result) {\r\n\r\n        return true;\r\n    }\r\n\r\n    function getBetInfo(uint256 index) public view returns (uint256 answerBlockNumber, address bettor, bytes1 challenges) {\r\n        BetInfo memory b = _bets[index];\r\n        answerBlockNumber = b.answerBlockNumber;\r\n        bettor = b.bettor;\r\n        challenges = b.challenges;\r\n    }\r\n\r\n    function pushBet(bytes1 challenges) public returns (bool) {\r\n        BetInfo memory b;\r\n        b.bettor = payable(msg.sender);\r\n        b.answerBlockNumber = block.number + BET_BLOCK_INTERVAL;\r\n        b.challenges = challenges;\r\n        _bets[_tail] = b;\r\n        _tail++;\r\n\r\n        return true;\r\n    }\r\n\r\n    function popBet(uint256 index) public returns (bool) {\r\n        delete _bets[index];\r\n        return true;\r\n    }\r\n}\r\n",
  "sourcePath": "D:\\Learning\\blockchain\\lottery\\contracts\\Lottery.sol",
  "compiler": {
    "name": "solc",
    "version": "0.8.11+commit.d7f03943.Emscripten.clang"
  },
  "schemaVersion": "3.4.4",
  "updatedAt": "2022-03-13T01:55:57.959Z",
  "devdoc": {
    "kind": "dev",
    "methods": {},
    "version": 1
  },
  "userdoc": {
    "kind": "user",
    "methods": {},
    "version": 1
  }
}